:10000000889C0020C5D20000D5C40000D5C40000E3
:10001000D5C40000D5C40000D5C40000D5C400007C
:10002000D5C40000D5C40000D5C40000D5C400006C
:0C003000D5C40000D5C4000095C4000039
:1000400053B94AB9002908BF00281CBF4FF0FF313F
:100050004FF0FF3000F00CB8ADF1080C6DE904CEA4
:100060000CF0CCFADDF804E0DDE9022304B07047BF
:10007000704700BF0000000000000000000000000A
:1000800001F0FF01102A2BDB10F0070F08D010F849
:10009000013B013A8B422DD010F0070F42B3F6D14D
:1000A000F0B441EA012141EA014122F007047FF066
:1000B00000070023F0E80256083C85EA010586EABD
:1000C000010685FA47F5A3FA87F586FA47F6A5FAF9
:1000D00087F68EB9EED1F0BC01F0FF0102F0070205
:1000E00032B110F8013B013A83EA010313B1F8D1B0
:1000F0000020704701387047002D06BF3546033891
:10010000073815F0010F07D1013015F4807F02BFC9
:10011000013015F4C03F0130F0BC0138704700BF1A
:10012000704700BF70B511F001061FD18B0700D4D6
:1001300070BD31461C2009F0EFFD31461D2009F04D
:10014000EBFD31461E2009F0E7FD324638491C2000
:1001500009F090FD324636491D2009F08BFD3246EC
:100160003349BDE870401E2009F084BD05460021DA
:100170001C20144609F0D0FD00211D2009F0CCFD03
:1001800000211E2009F0C8FD284609F0B5F9238892
:10019000B3F5C15F4FEAD0702FD043F60702934208
:1001A00015D040F60202934227D050BB21490022CD
:1001B0001C2009F05FFD1E4900221D2009F05AFD98
:1001C000BDE870401A4900221E2009F053BD94F882
:1001D00024305A06E9D016490022D0B91C2009F073
:1001E00049FD134900221D2009F044FDBDE870407F
:1001F000104900221E2009F03DBDE37B5906EAD1DB
:10020000D3E70B492F221C2009F034FD0849322284
:10021000D3E71C2009F02EFD054932221D2009F0EC
:1002200029FDBDE8704002492F221E2009F022BDA1
:10023000006000200160002070B504460D4616469F
:10024000FFF76EFF324629462046FFF76BFF70BD71
:1002500038B52B49142009F0BDFC0021142009F009
:100260005BFD01200BF05AFE0121142009F054FD22
:100270004FF40C700BF052FE2149142009F0AAFC37
:1002800020490A2009F0A6FC1E49092009F0A2FC19
:100290001D49082009F09EFC0021142009F03CFDB6
:1002A0000724B92500210A2009F036FD45FA04F19A
:1002B000092001F0010109F02FFD01210A2009F0B8
:1002C0002BFD08200BF02AFE013CEBD200210A2076
:1002D00009F022FD0121142009F01EFD4FF42F70BA
:1002E0000BF01CFE142009F04DFC0A2009F04AFC1A
:1002F000092009F047FCBDE83840082009F042BC5D
:10030000016400200064002002200020704700BF2C
:1003100008B509F05FFE0BF0ADFAFFF799FFFFF7A4
:10032000F5FF08BD0649074B074891F808C00122B0
:100330000A724FF0030C197A80F814C01A727047D1
:10034000D81A00209C1A0020C81B0020024A012154
:10035000D0E906035160184700200940012070478A
:1003600008B5034C2368984763689847FAE700BFCD
:1003700004D600002021EFF3118281F31188037C61
:10038000022B02D082F311887047436870B404686E
:100390001C60036844685C600024047483680C4833
:1003A000DD6CC4689E6934436E681D605E603360B6
:1003B0006B60C460012483F82040047482F31188C8
:1003C000EFF3118381F3118882F3118870BC7047B9
:1003D0009C1A002010B54FF0200EEFF3118C8EF315
:1003E00011880C4A8368D168D86C9C6921434468A1
:1003F00018605C6023604360D160012183F82010A5
:1004000011748CF31188EFF311838EF311888CF340
:10041000118810BD9C1A002088B138B510F108046D
:100420000BD2084A084B1068214605680822A847E5
:1004300018B1C0E90004083038BD002038BD0020E4
:10044000704700BF2424002028240020FEE700BFBE
:100450002DE9F04F2A4C83B0D4F818A0E268B2FA24
:1004600082F1C1F11F01E369264D03EBC10321694C
:100470000091616995F814900191002701264FF0D1
:1004800020082EE0D0E90C21C36AD4F818B022610C
:10049000C4E90501036380F8287027722E7540F2C5
:1004A000000CEFF311828CF311884269D0E9060148
:1004B0009047EFF3118288F31188019BE268636132
:1004C000009B85F814902672C4F818B02361A2B17D
:1004D000B2FA82F1C1F11F01E36903EBC1039A454E
:1004E0000BD21868016819604B6019688B42C9D13A
:1004F000436A22EA0303E360C4E703B0BDE8F08F78
:10050000D81A0020C81B0020836D026C2DE9F04131
:10051000DFF86880C76D9E184FF00103C8F80430FB
:10052000436C044647EB0307350C0BF0EFFCD8F89F
:10053000303045EA0745EA1AB2F1004F03F10603ED
:1005400005D85A1B002A10DBAB4238BF2B460B4A9A
:10055000936178B1D4E91601E369A665C4E9140191
:10056000E765A069BDE8F0411847044A2B4693614E
:100570000028EFD10BF0CEFCECE700BF00200940D3
:100580002DE9F04F334CE36883B0002B5CD040F290
:10059000000CEFF311838CF311884FF02008EFF378
:1005A000118388F31188D4F818A0E268B2FA82F1B6
:1005B000C1F11F01E36903EBC1039A4544D22169EC
:1005C000254D0091616995F814900191002701264D
:1005D0002EE0D0E90C12C36AD4F818B02161C4E946
:1005E0000502036380F8287027722E7540F2000C14
:1005F000EFF311828CF311884269D0E9060190472C
:10060000EFF3118288F31188019BE2686361009B1C
:1006100085F814902672C4F818B02361A2B1B2FA1A
:1006200082F1C1F11F01E36903EBC1039A450BD2CB
:100630001868016819604B6019689942C9D1436A0A
:1006400022EA0303E360C4E70023237203B0BDE89A
:10065000F08F00BFD81A0020C81B00202DE9F04FF2
:10066000202383B0EFF3118483F311884FF080537C
:10067000DFF8A8A1D3F88C311B6B9847654BD3E901
:10068000106532462B46FFF7DBFC00228AF85D201E
:10069000DAF80830DAF85470A7EB030EDAF808300D
:1006A00006FB01F105FB0015A0EB030C5949A6FB65
:1006B00000363544C1E91235E6454FF001038AF8AA
:1006C0005C3000F29B80A0EB070B84F3118891460D
:1006D000DAF80040CDF800B06668B4424F44ABEBA6
:1006E000090B4FF0FF3809D117E02B7D23B1EB68E0
:1006F000DB1B984528BF9846A6420ED025462468A5
:100700002B7D002BF8D0EB689F42EED12B6943B9CB
:100710002B75D5E906309847E7E7C34505D3C146B1
:10072000D6E7F818E8602B62F3E72023EFF3118295
:1007300083F311889AF85D3001929BB1DAF80030AA
:100740005E68B34256D04FF0FF3818461B68057DEF
:1007500035B1057D25B1C068C01B804528BF8046E6
:100760009E42F2D1B8F1FF3F44D0009BA9EB0306B3
:10077000DAF8583046449E4228BF1E46BD19254C23
:10078000D4E91030A16CA3FB063213EB0108E36C33
:1007900006FB002242EB03040BF0B8FB1E4B4FEAB2
:1007A000184B1A6B4BEA044BABEB0203B3F1004F4F
:1007B00002F1060206D8A2EB0B03002B28DB5A45F8
:1007C00038BF5A46144B9A61F8B1124BCAF85060C0
:1007D000C3E9148401238AF85E3000238AF85C3070
:1007E000CAF85450019BCAF8087083F3118803B00B
:1007F000BDE8F08FDAF85860F519C0E78AF85C2098
:1008000084F3118803B0BDE8F08F0BF083FBDCE7C5
:100810005A46D7E70028002000200940081B002086
:100820000BF01ABD034A034692E8030083E8030075
:10083000704700BFC81B00200A207047F8B520236E
:10084000EFF3118683F31188027DB2B1C5680446C7
:10085000EFF3118783F311884FF08053D3F88C3175
:100860001B6B9847074BD3E91023FFF7E9FB87F38E
:100870001188236A281A984200D9002086F311882B
:10088000F8BD00BF00280020007D70470023C0E9AC
:1008900001330370704700BF816070470023037508
:1008A000704700BF2023EFF3118083F31188704756
:1008B0000F280DD9103843099B0003F1E02300F005
:1008C0001F0001228240D3F80011C3F800217047B5
:1008D00000D070474FF0E0231A691A6942F0020213
:1008E0001A6170472023EFF3118083F3118880F39E
:1008F0001188B0FA80F04009704700BF0F2804D972
:100900004FF0E0231038C3F8000F70474FF0200C71
:10091000EFF311838CF31188C0E9002183F3118870
:10092000704700BF00214FF0FF320123C0E90012E1
:100930000372704780F31188704700BF89B210B40A
:100940000122418200F114040021C0E902128461F5
:10095000027444612022EFF3118182F31188064A68
:1009600002605468446054682060506081F31188CC
:100970005DF8044B704700BF001B002000234FF0C0
:10098000FF32C0E90033C0E902237047024B012265
:10099000187A1A72704700BFD81A0020014B1869E4
:1009A000704700BFD81A0020014B1A78FDE700BF3E
:1009B00000240020014BDB69184700BFC81B002042
:1009C000F8B5174ED6E91032A3FB003400FB024401
:1009D000D6E912219D1844EB01040BF097FA114B54
:1009E0002F0C1B6B47EA0447FA1AB2F1004F03F1D0
:1009F000060305D8DA1B002A08DBBB4238BF3B469A
:100A0000084A936138B1C6E91454F8BD054A3B461B
:100A100093610028F7D10BF07DFAC6E91454F8BDB4
:100A2000002800200020094030B48468B0F90E206E
:100A3000A507034602D5017B1F292BD824495868F6
:100A4000096A51F82250854218BF41F822005142EC
:100A5000D9810F2A197B0AD9103A02F1E020E40764
:100A600080F8001423D4002030BC98607047032A1B
:100A7000F9D9101F00F1E02080F8181DE0074FF0B1
:100A8000E021F0D50F2AEED10A690A6942F002028C
:100A90000A61E8E70E49486A40F82230096A0D48C1
:100AA00051F82250854218BF41F82200D1E7510980
:100AB000890001F1E021012002F01F0200FA02F298
:100AC000D1F80001C1F80021002030BC98607047C7
:100AD000801B0020B9C30000012931D0B0F90E30CD
:100AE000002BB8BF5B420F2B10B420D9A3F110012B
:100AF0004A09920002F1E022012001F01F0100FAF0
:100B000001F1D2F80001C2F880110E4A0E48116AB4
:100B100051F82340844218BF41F823004FEA830C68
:100B2000536A5DF8044B002243F80C207047ECD167
:100B30004FF0E0221169116921F002011161E4E72F
:100B4000704700BF801B0020D5C4000070B5202373
:100B5000EFF3118283F31188284A2948156A4FF070
:100B6000E023C3F8085DD3F8081D264B5061994275
:100B70002548D061556327D09C46AE4603F1300628
:100B800064460FCCB4420EF1100E0CF1100C4EF86E
:100B9000100C4EF80C1C4EF8082C4EF8043CEFD10B
:100BA000BCE80700CEF800001848CEF80820CEF8C0
:100BB000041005F13C0305F1D402C3E90000083339
:100BC0009A42FAD1C5F8D4004FF0E0222020D2F8A2
:100BD0000C3D23F47F4303F1BF6303F500334FF46F
:100BE0000071C2F80C3D82F8220DC2F8141DD2F833
:100BF000343F23F04043C2F8343F70BD801B0020D7
:100C0000889C00200000000000060000D5C4000001
:100C10000F280FD9103843099B0003F1E02300F09F
:100C20001F00D3F800210121814002EA0100C3F82E
:100C30008011704701D0002070474FF0E023186901
:100C40001A6922F0020200F002001A61704700BF28
:100C50002DE9F0411D4604462023EFF3118783F36D
:100C60001188654EB068002858D1B46087F31188A8
:100C7000002D3ED06B68E261A36100224FF4803307
:100C8000C4E9082300220023C4E91223E160297B80
:100C9000AB68012902461F4675D1C4E91030636173
:100CA00056482978406B0229076D3AD0C4E91632BC
:100CB00000220023C4E91423002936D1504B14200C
:100CC0009F42E08604F1280500F09180012128462A
:100CD000FFF702FF2022EFF3118382F3118883F3E1
:100CE0001188237C002B5ED00023B3600020BDE878
:100CF000F0810020E1604FF48031C4E90801002058
:100D00000021C4E912013F483E4BA5610021C4E91E
:100D100010013D4DE26163610022C1E787F3118854
:100D2000E4E7C4E91432C4E91632354B14209F427B
:100D3000E08604F12805C9D1FFF76AFF334A344938
:100D4000E02384F834300323C4E90A4223632846AD
:100D5000FFF76AFE2022EFF3118382F3118883F3F9
:100D60001188237C03B32022EFF3118382F31188CF
:100D700026607268626072681460746083F3118820
:100D80002046BDE8F081234A19460023FFF758F9B1
:100D9000214A6061C4E910014FF0FF310029BA41D6
:100DA0000346B9D2A2E700252023EFF3118783F38E
:100DB00011881A4B61694FF08052B1F5802FD2F83B
:100DC00084011A6B2CBF090C04210A444FF001085E
:100DD000C3F804809A610368232100209847104BD0
:100DE000C3F8808287F31188002DBCD17CE7FFF720
:100DF0000FFF0C4AA3E700BFBC1B0020801B002094
:100E0000D5C4000037894100E8D500004D0300003B
:100E10002824002040420F003F420F0000200940DC
:100E2000000024430905000070B5344A344C92F8A0
:100E3000243001218AB0646084F865102460C3B94D
:100E4000D36982F8241003F1080003F110015B60FC
:100E50001B60D8609860596103F11800196103F1B3
:100E60002001D86198615962196203F12801D962A1
:100E70009962D069234B63612830606422486062C4
:100E8000002105252020C4E90A11C4E90F11C4E995
:100E90000C502162236184F83810EFF3118580F340
:100EA0001188A2615068E061566803F10800306063
:100EB000506085F31188154D0091E3640A23059372
:100EC00002230391124A8DF80C30284603ABCDE97A
:100ED0000611CDE908110491FFF7BAFED5E91023F8
:100EE000002047F69061FFF7ABF84FF0FF33002981
:100EF00018BF1846A0650AB070BD00BFD81A002000
:100F0000081B0020181B00205D06000000280020A0
:100F1000851900002DE9F84F284C0D46D4F834808F
:100F2000174604461E466BB158F82130244A9342B6
:100F300005D1352926DD01212046FFF7CDFD002012
:100F4000BDE8F88F58F821301D4A9342F7D1352972
:100F5000F1DC58F82190E1819945ECD10846FFF782
:100F600057FEE02323730323A360C4E900671549F8
:100F70002046FFF759FD58F825304B45DFD0204675
:100F8000BDE8F88F58F821B09B45D6E900A9367A1C
:100F9000E181D0D1084646F00206FFF739FEC4E9E8
:100FA00000A7084984F80C90A6602046FFF73CFD96
:100FB00058F825305B45C2D02046E1E7801B002071
:100FC000D5C40000282400202DE9F04F534A54498D
:100FD0009368097D83B0197085690195D0E904642F
:100FE000D0E908B5D0E9008ED0E902C7D0E90AA956
:100FF0000094C4691E63C3E904B5019D009E5E634D
:10100000C3E906A9C3E9088EC3E90AC7C3E90E54B8
:10101000046B1C6400F140045C64446B9C64D0E984
:101020000E40C3E91340032974D8DFE801F0625C85
:10103000560200215469D5695960D768C3E9024551
:1010400057B34DB36A1E052A98BF07F1FF3058D930
:10105000781E061B022E3946224652D925F0030C73
:101060004FEA950E0CEB040652F8040B41F8040B02
:10107000B242F9D1654507EB0C00A5EB0C010BD092
:1010800014F82E4007F82E40012905D054784470FA
:10109000022901D0927882704FF0E022D2F8041D2C
:1010A000596592F8281D996592F8290DB2F82A1D04
:1010B000D2F82C4D89B2C3E91701D2F8301DD2F80D
:1010C000340DC3E91941D2F8381DD2F83C2D5A67C6
:1010D000C3E91B0103B0BDE8F08F1249896959606B
:1010E000D1E90A54A9E7104954694969D569596099
:1010F000A3E7516A5469D569C0B251F8201059600C
:101100009BE70246254414F8011B02F8011FA54283
:10111000F9D1C1E70022C3E90222BDE7801B00200C
:10112000C81B00209C1A0020D81A002000B5094BCB
:101130009A6801219FB019714AB1FFF745FF064B2C
:101140004FF0E0210322D1F8041D1A75FEE7C3F821
:1011500008D0F2E7801B0020C81B002008B5024B16
:1011600001221A71FFF7E2FF801B00202DE9F041F8
:101170002027EFF3118387F311881549154B0D7A5A
:10118000154E01220A724FF0E0211C7A1A72D1F832
:10119000043D124A96F81480526A0021DBB2317580
:1011A00052F82330EDB2E4B2986040F2000CEFF355
:1011B00011828CF31188D3E900029047EFF3118379
:1011C00087F3118886F8148004EB0520BDE8F081D0
:1011D0009C1A0020D81A0020C81B0020801B002069
:1011E000C0B208B9FFF7CCB9704700BF890800B595
:1011F0000139864601984EF821000EEB810C8900DA
:1012000074394CF8043C4CF8082C0EEB0100029A9F
:10121000124B4CF8143C4CF8102C4FF0FF33039A4F
:101220004CF80C2C4EF8013043604CE91B334CE970
:1012300019334CE917334CE915334CE91333C0E942
:101240000C33C0E90E33C0E91033C0E91233C0E9F2
:101250001433C0E916335DF804FB00BFA1C30000DE
:1012600000F120010022012330B4C383C0E905232B
:10127000416200F10C04016202772021EFF3118C2E
:1012800081F311880C4BC3605D6805615D682C605B
:101290005C608CF311888260EFF3118281F3118816
:1012A000064B03605968416059680860586082F3D2
:1012B000118830BC704700BF001B0020781B002045
:1012C000836A30B55C1E144218BF1A460C4004D025
:1012D0000B441B1B994229D81946036A00F12005CB
:1012E00043B302F1FF3C03E018681D46B0B103466A
:1012F00013EA0C0418BF141B586814BF04EB010E4A
:101300008E467045F0D3401A021B18193CB15C6040
:1013100022B144181D68455062601C6030BD1B68D6
:1013200032B1435001444A60296030BD002030BDD5
:101330002B6030BD184630BD2DE9F0412B4D826841
:1013400095F85E300262044613B195F85C30EBB15B
:10135000274E2023EFF3118783F311884FF080533A
:10136000D3F88C311B6B9847D6E91023FEF768FE43
:1013700087F31188A36895F85C1003440122E360A9
:10138000227509B185F85D20BDE8F0814FF08053EA
:10139000174ED3F88C311B6B9847D6E9107843462B
:1013A0003A46FEF74DFEAB6807FB01F108FB001162
:1013B000A0EB030ED5F85480AB68A8EB030CA7FB99
:1013C00000321144E645C6E91231C2D8A768A8EB3D
:1013D00000083E1801234745E6602375D4D23846FD
:1013E000FFF7EEFA2F656E65CEE700BF081B002001
:1013F0000028002010B52023EFF3118483F3118817
:10140000FFF79AFF84F3118810BD00BFF8B50446BA
:101410001BB3D3E901761D788260002307618161E7
:10142000C66103752022EFF3118182F31188154BF9
:1014300003605E6846605E683060586081F31188C2
:101440000DB92046F8BDEFF3118582F31188FFF73F
:1014500073FF85F311882046F8BDC0E906130361C8
:10146000037582602023EFF3118283F31188054B0B
:1014700003605968416059680860586082F31188B8
:101480002046F8BD081B00202DE9F8432A4B1B68B5
:1014900006461C6818460F46284B154622B30822FC
:1014A0002421D5F8089095F800806D68A04704467F
:1014B000B8B10023876005618661C0F81C90037590
:1014C0002022EFF3118182F311881D4B03605D68C8
:1014D00045605D682860586081F31188B8F1000F9D
:1014E0001ED12046BDE8F88308222421A0470446E7
:1014F0000028F6D087600561C0E9066505752023E0
:10150000EFF3118283F311880D4B0360596841603A
:1015100059680860586082F311882046BDE8F88356
:10152000EFF3118582F31188FFF706FF85F3118829
:101530002046BDE8F88300BF242400202824002092
:10154000081B00202DE9F0411B4B1F6884B0154695
:1015500080460C4613463E6808221C213846B04798
:10156000F0B104B124780474002200F114031FFACE
:1015700088F6826001224682C26083614361202333
:10158000EFF3118283F311880C4B036059684160BB
:1015900059680860586082F3118804B0BDE8F08192
:1015A000074B9D42F9D02DB1064AC5E900271C23FF
:1015B000AB60FEE701ADF7E724240020001B00200C
:1015C000282400207CD4000030B40346D2E9015026
:1015D00014689D61D861D0685961411C5B601C61D1
:1015E0001B601FD001218140C50014690F4A596258
:1015F000D1691862294400205963C3E90B4483F878
:10160000280003F108012025EFF3118485F31188E8
:101610009A605568DD6053681960516084F31188E1
:1016200030BC7047282520210520DEE7D81A00208D
:1016300070B50446002A30D00B469168052935D98B
:10164000013131D1D2E900654FF0280CD2686060D9
:10165000052120602020C4E90536194B6062C4E9E9
:101660000751D969614461630021C4E90B2220203C
:1016700004F10802216184F82810EFF3118180F34E
:101680001188A3605868E060586802605A6081F36E
:101690001188636943B1204670BD0A4B0A4AFFF7BF
:1016A00093FF6369002BF6D1002070BD01201668FE
:1016B0005568D2686460884024604FEAC10CCAE76C
:1016C000D81A002028240020CCD5000070B51E4C6C
:1016D00082B0002520262574E368ABB940F2000CE7
:1016E000EFF311838CF311880195019B2BB9019BBA
:1016F00001330193019B002BF9D0EFF3118386F3A3
:101700001188E368002BE9D0E368B3FA83F3C3F1EF
:101710001F03D4E9070101EBC302904204D3237CE9
:10172000002BD8D102B070BD51F83330A06903F15D
:101730001C011C30C4E906320AF01EFE237C002B7B
:10174000C9D102B070BD00BF9C1A002010B5074C73
:10175000237C43B90023237240F2000CEFF3118382
:101760008CF3118810BDFFF7B1FFF3E79C1A00203E
:1017700010B52023EFF3118283F31188084C237CEA
:1017800013B1084B1B7A43B10023237240F2000CC3
:10179000EFF311838CF3118810BDFFF797FFF3E788
:1017A0009C1A0020D81A0020204A117A70B4012413
:1017B00000F11405C9B214722023EFF3118C83F3E6
:1017C000118843699D4226D043691E684661D868E6
:1017D00075601C7408B1002404759B68D068DC6CCB
:1017E0009D69284365681C605D602B606360D06004
:1017F000012083F8200010748CF311882023EFF36C
:10180000118283F311888CF3118809B170BC704781
:1018100070BCFFF7ADBF037CDB0701D54482F2E764
:10182000438A01339BB24382EDE700BF9C1A00203C
:10183000FFF7BABFF8B5214B1D7A9C6901221A72D5
:10184000EDB22022EFF3118682F31188DF68616820
:101850002068E26CD4F818C00860216860684860AD
:1018600011688A429A6904BF27EA0C07DF60944234
:1018700004BF0022DA6101221A74032284F82020B6
:1018800094F8482052B12022EFF3118782F3118897
:1018900058690138586158B187F3118886F3118867
:1018A000646024601DB9BDE8F840FFF761BFF8BD72
:1018B00087F31188024B1B6A9847EDE79C1A0020BA
:1018C000C81B0020F0B52C498FB0002301AC05AA3D
:1018D00009938DF82830CDE90B140790049220234A
:1018E000EFF3118783F31188244A01219369157A54
:1018F0001172D2F80CC058681E68D96CD3F818E081
:101900000393066018685E6846600868814204BFF9
:101910002CEA0E01D1600120194910744E68049818
:101920004FF0000CC2F81CC0022283F82020016096
:10193000466030604860FFF7FFFC039B0294EDB205
:101940005C62019487F311880DB9FFF711FF202322
:10195000EFF3118183F31188049B58681C680460BD
:1019600018685B6843600022049281F31188039B2E
:101970005A620FB0F0BD00BFD50300009C1A0020D2
:10198000081B0020F8B5244B2020DB6CEFF3118EF0
:1019900080F3118893F828204ABB204C596BE268E9
:1019A0005E6A257A4FF0010C84F808C032434E6815
:1019B00083F828C01960EDB25E6033604B60E2606E
:1019C0008EF3118805B1F8BDA169EFF3118680F39C
:1019D0001188E368B3FA83F2C2F11F02E36903EBF3
:1019E000C203994206D3257286F31188F8BD8EF39F
:1019F0001188F8BD0A4B0B481F7A83F808C0FFB264
:101A00000AF07CFD257286F31188002FDBD1BDE83A
:101A1000F840FFF7ADBE00BF081B0020D81A002019
:101A20009C1A002051040000F8B52022EFF3118425
:101A300082F31188036B0B43036384F31188EFF384
:101A4000118E82F3118890F828304BBB1E4C416BED
:101A5000E368466A257A4FF0010C84F808C03343E6
:101A60004E6880F828C00160EDB246603060486082
:101A7000E3608EF3118805B1F8BDA169EFF311861B
:101A800082F31188E368B3FA83F2C2F11F02E369BB
:101A900003EBC203994206D3257286F31188F8BD81
:101AA0008EF31188F8BD094B09481F7A83F808C0E6
:101AB000FFB20AF023FD257286F31188002FDBD1D7
:101AC000BDE8F840FFF754BED81A00209C1A002049
:101AD0005104000000B170472DE9F0412022EFF3DE
:101AE000118182F311881D4DEB686BB92B7281F364
:101AF00011881B4E337A012232721BB9BDE8F041C6
:101B0000FFF736BEBDE8F081044681F31188A9696C
:101B1000EFF3118782F31188EB68B3FA83F2C2F115
:101B20001F02EB6903EBC203994204D3287287F3C7
:101B300011880B4EDEE70A4E0A4896F8088001230A
:101B400033725FFA88F80AF0D9FC2C7287F3118897
:101B5000B8F1000FCED1FFF70BFECBE7D81A00206B
:101B60009C1A002051040000000A09D110B5064C4F
:101B7000237C13B1054B1B7A1BB10023237210BDCC
:101B80007047FFF7A3FDF8E79C1A0020D81A002041
:101B900070B5202198B0EFF3118381F31188204CA8
:101BA000E268AAB940F2000CEFF311838CF31188BC
:101BB0000192019B2BB9019B01330193019B002BE7
:101BC000F9D0EFF3118381F31188E368002BE9D09A
:101BD000E268B2FA82F2C2F11F02236A114953F895
:101BE0003200A06103EBC203E361002602230B7500
:101BF000267440F2000CEFF311838CF3118820233C
:101C0000EFF3118283F31188074D28690AF086FCEF
:101C1000A1692E6009A81C310AF0AEFB18B070BD96
:101C20009C1A0020C81B0020801B0020F8B52E4BFA
:101C30001B78002B55D02023EFF3118183F31188FB
:101C40002A4A5368072B1DDD81F3118840F2000CEE
:101C5000EFF311838CF311882022EFF3118182F3CB
:101C60001188234CE368A3B9237281F31188214DB5
:101C70002B7A01222A720BB9FFF77AFDBDE8F840F2
:101C8000FFF786BF10681C4C40F8234001335360B7
:101C9000DAE781F31188A169EFF3118682F31188E5
:101CA000E368B3FA83F2C2F11F02E36903EBC203F4
:101CB000994205D30023237286F311880D4DD7E78F
:101CC0000C4D0E482F7A01232B720AF017FC0023CB
:101CD000FFB2237286F31188002FC9D1FFF748FDA8
:101CE000C6E7FEF761FE00BF00240020901A002026
:101CF000D81A00209C1A002025030000510400007F
:101D000000B97047FFF7DEBDF0B50446D0E90A2000
:101D100085B022B1BE210AF0D2FFD4E90A20D4E96D
:101D20000E31CDE901312B4900912B4B111F626B14
:101D3000FFF75CFA6169E06100220123914284F8B7
:101D40002030626232DB254A6069116A656901EB05
:101D5000C501E164117A137203FA00F0A061C9B2FF
:101D60002020EFF3118E80F31188EFF3118C80F3B4
:101D70001188D568E66CA7693D437768266067607F
:101D80003C607460D56084F8203013748CF3118843
:101D9000EFF3118380F311888CF311888EF311888F
:101DA00009B9FFF7E5FC002005B0F0BD0C49A261C0
:101DB000E1642023EFF3118283F3118821600B4645
:101DC0004968616059680C605C6082F3118800208A
:101DD00005B0F0BD4D170000351800009C1A00201A
:101DE000C81A00202DE9F04715461F46D5F818807F
:101DF0001268EB6884B004468A4602614361B8F118
:101E0000000F40D06B692A69C4F83080002B08BFEE
:101E10004FF40073002A3AD0D11D21F00701521A65
:101E20001A4422F007024FF0FF33E162A2622363FB
:101E30006A68A96895F82030C4F834A0C4E90E2176
:101E4000EA692264244D84F84830C3B90026394633
:101E500066652046FFF758FF202104F10803EFF3E1
:101E6000118281F31188A5606968E16069680B607F
:101E70006B6082F31188304604B0BDE8F0876B696F
:101E800001336B61E2E7154BD3F80080BAE7073303
:101E900023F00709C4F82890B8F1000F09D0D8F84A
:101EA00000603B46082249464046B04728B1E06200
:101EB000BEE70B4BD3F80080F1E70A4B9F4206D0F8
:101EC00047B1094BC7F80890C7E90038FEE7E06260
:101ED0000120D1E701AFF4E79C1A00203424002050
:101EE00024240020282400207CD400002DE9F04187
:101EF000044639BB394B1D7A01212022EDB21972FB
:101F0000EFF3118682F3118890F820208A421DD0C9
:101F1000022A4AD0032A2DD1436802681A60036856
:101F200042685A6086F311880DB9FFF721FC206BD7
:101F3000431C09D0D4E90A21002830D0BDE8F04183
:101F4000436818470129F2D1BDE8F0814268016871
:101F500011600168C26C4068486011688A4237D0DD
:101F6000626A3AB1D2682AB1516810680860116893
:101F700052684A6094F84820002AD3D02022EFF318
:101F8000118782F3118858690138586120B987F3A5
:101F90001188134B1B6A984787F31188C2E7114BCE
:101FA0001868BDE8F04143681847426A002AE1D04A
:101FB0005168106808601068D16852684260002952
:101FC000D8D04A68086810600A6849685160D1E74B
:101FD000DA68A16922EA0102DA60C1E79C1A0020EE
:101FE000C81B0020242400202DE9F0416C4D8AB04C
:101FF000FEF7ACFD6B69019301ACA34204D2BE2293
:1020000003F8012B9C42FBD1664B93F82820002A51
:1020100068D0654A654B664911601A7A0AB901228F
:102020001A72644B93F865300BB9FEF7FDFE624AF5
:1020300092F82430CBB9D369012182F8241003F13E
:10204000080103F110025B601B60D96099605A615E
:1020500003F118011A6103F12002D96199615A62F2
:102060001A6203F12802DA629A62544E96F8383006
:10207000CBB9336A012286F8382003F108025B608D
:102080001B60DA609A6003F110025A611A6103F171
:102090001802DA619A6103F120025A621A6203F1AE
:1020A0002802DA629A62464B1F78002F4FD095F8CB
:1020B00038308BB9012385F838302023EFF31182B3
:1020C00083F31188EB696A69083B22F00702134425
:1020D0004FF0FF322B612A603A4B01221A700AB08E
:1020E000BDE8F08101223849384883F82820384F6C
:1020F000384EFFF7B5F8384B08229A6217F00702FE
:10210000A6EB07063FD1DF6126F007065E622022BC
:10211000EFF3118082F31188304A1A6151685961D6
:1021200056682F493160516080F31188DA690021C7
:102130001160596A51602B4919602B491A62596024
:102140002A4A2B4999602B49D960136061E74FF007
:1021500001082022394602A883F800800AF0AFFD6A
:102160002549059122462549254C01914FF40071DE
:1021700006913B4623498DF824802046FFF732FE26
:1021800040B9746393E71644C2F108023A44DA6135
:10219000083EB9E741462046FFF7A8FEF1E700BF39
:1021A000801B0020C81B0020F8270020901A002068
:1021B00000280020081B0020D81A00209C1A0020AC
:1021C0009824002000240020E0D50000F8260020FC
:1021D000885C0020889C002068280020701B00205C
:1021E000782800206D250000B12400002424002060
:1021F0005D030000E9250000A0240020C8D30000F2
:10220000A026002061030000234A2449137A70B5F8
:102210000C680120DBB21072002C37D022680A60F3
:102220000BB9FFF7A5FA04F12403A362202263622D
:10223000EFF3118382F311886169206908602169D5
:102240006069486083F31188E068E8B1EFF31183B7
:1022500082F31188C268816811608268C168516028
:1022600083F311880E4D0021FFF740FE2868E168D6
:102270004368582298470023E36028682146436852
:10228000BDE8704050221847054DF6E71BB9BDE880
:102290007040FFF76DBA70BD9C1A002060280020C6
:1022A000242400200D4BC26C70B4DD6841680468C2
:1022B00086690C60016844684C6011688A429A69BA
:1022C00004BFB543DD60824204BF0022DA6102210F
:1022D000012270BC80F820101A7470479C1A0020EC
:1022E0002DE9F0414B1E03338EB004464ED83E4AD2
:1022F000079100230B9205A9022209938DF828303B
:102300006E46CDF830D003918DF810202023EFF3E6
:10231000118583F31188438A9BB2002B4BD100F1C6
:102320001408324B98691F7A466201221A72029091
:10233000FFF7B8FFA369CDF8008001931E609DF8F8
:102340001030A661022BFFB23FD085F311880FB980
:10235000FFF70EFA2023EFF3118283F31188039B1A
:102360003BB159681868086018685B6843600021D1
:102370000391029B0021596282F311889DF810009D
:10238000401A18BF01200EB0BDE8F08100220323DF
:102390008DF8103003922023EFF3118283F311881C
:1023A000438A9BB2154633B9C9B982F311880846EE
:1023B0000EB0BDE8F081638A013B9BB2638285F376
:1023C000118801200EB0BDE8F081094B03985A68CE
:1023D0000360426010605860FEF7AEFFB5E700F1A1
:1023E00014086E469DE700BF750300009C1A00208C
:1023F000081B002008B5FFF773FF013840B208BD85
:10240000F0B587B0002203238DF8143004460492FF
:102410002023EFF3118783F31188438A9BB2002BAB
:1024200030D1214B98691D7A039001AE012246629A
:102430001A72FFF737FFA36904F1140201920293A5
:102440001E609DF81430A661022BEDB222D087F3F6
:1024500011880DB9FFF78CF92023EFF3118283F374
:102460001188049B3BB159681868086018685B685C
:10247000436000210491039B0021596282F311887B
:1024800007B0F0BD438A013B9BB2438287F31188BA
:1024900007B0F0BD054B04985A68036042601060B5
:1024A0005860FEF749FFD2E79C1A0020081B002065
:1024B0002DE9F0412A4FDFF8B0801546D8F81830E2
:1024C000BA689A4206460C4638D14FF0010CB26AFF
:1024D000531E2B401CBF5219D51A336A06F1200235
:1024E000114623B938E01868194688B303469C4260
:1024F000F9D860198342C4E900350C6018D08A42CB
:1025000003D04B68CA18944204D0BCF1000F08D025
:10251000BDE8F08122682B44C1E90023BCF1000F23
:10252000F6D1C7F808C00F48BDE8F041FFF73CB945
:1025300058681B680544C4E90035E0E707F10C0062
:10254000FFF75EFFD8F81830BB604FF0000CBEE715
:10255000C4E900051C60D2E7C4E900353462D4E761
:10256000F8260020042700209C1A00202DE9F043C3
:10257000DFF870801D46184BD8F808409B699C42D4
:1025800085B007460E4607D1FEF79AFE0446BCB159
:10259000204605B0BDE8F083914608F10C00FFF736
:1025A0002FFF4A4631463846FEF78AFE002304468E
:1025B00008F10C00C8F80830FFF7F6F8002CE7D156
:1025C000064B9D42E4D025B1054BAE60C5E900370E
:1025D000FEE701ADF8E700BF9C1A00202824002088
:1025E00010D50000F82600202DE9F0411C4FDFF83F
:1025F0007880436ABA680B60D8F8183000249A4291
:10260000C1E9014406460D4616D1036A93B120463E
:1026100001215A681B68A242104407D9AA603BB145
:1026200014465A681B68A2421044F7D8002BF0D118
:10263000686071B1BDE8F08107F10C00FFF7E0FEC2
:10264000336AD8F81820BA601BB121466868AC68B4
:10265000DFE70023BB600348BDE8F041FFF7A4B803
:10266000F8260020042700209C1A002010B5242200
:10267000044600210AF023FB01234FF40072E360BB
:10268000626184F8203010BD2DE9F04F044685B01A
:102690008B461F461546002A49D013680361D3684C
:1026A0004361D2E905381269B8F1000F76D0002BEA
:1026B000C4F8308008BF4FF40073002A42D0D11D07
:1026C00021F00701521A1A4422F007024FF0FF339B
:1026D000E162A26223636A68A96895F82030C4F8B1
:1026E00034B0C4E90E21EA6922642E4D84F84830E2
:1026F000CBB90023636539462046FFF705FB20214F
:1027000004F10803EFF3118281F31188A560696871
:10271000E16069680B606B6082F31188A2465046E5
:1027200005B0BDE8F08F6B6901336B61E1E71E4BCB
:102730000561D3F800801D4DC0F830800122426150
:102740004FF40073073323F00709C4F82890B8F159
:10275000000F0AD0D8F800603B46082249464046A0
:10276000B047824628B1E062B5E7114BD3F800804C
:10277000F0E7104B9F4206D077B10F4BC7F8089097
:10278000C7E90038FEE7E06201212046FFF7AEFB13
:10279000504605B0BDE8F08F01AFEEE70249D1F831
:1027A000008084E79C1A002034240020A8D5000073
:1027B00024240020282400207CD4000089B138B5CE
:1027C00011F108040BD2084A084B1068214605682D
:1027D0000822A84718B1C0E90004083038BD00201D
:1027E00038BD0020704700BF24240020282400208A
:1027F0000B4659B18C46064A5CF8081D106853F820
:10280000042C4368ACEB010C62441847704700BFCE
:10281000242400202DE9F0411546002937D00C462C
:1028200032B312F108062ED21B4F1C4B3868082217
:10283000D0F800803146C04728B3466054F8042CD5
:102840000060083AAA4200F1080628BF2A4621463D
:1028500030460AF03CFA2346386853F8081D54F80D
:10286000042C5B1A1A44436898473046BDE8F0814F
:102870000B46094A53F8081D106854F8042C5B1ADB
:102880001A444368984700263046BDE8F081BDE809
:10289000F0411046FDF7C0BD24240020282400206C
:1028A0002023EFF3118283F31188FEE708B520237C
:1028B000EFF3118283F31188074E7468002C08DD52
:1028C0000546013C3368284653F824309847013CBC
:1028D000F8D2FDF7BBFD00BF901A002008B5024BEF
:1028E00003221A75FFF7E2FFC81B002010B50A4C3F
:1028F0000A4A2368D0F800E003EB430C42F81CE0DE
:1029000002EB4C028088908005485A1CC15402F0AA
:102910000F02226010BD00BF94280020A8280020CC
:1029200098280020F8B50E4B0E4F1E68741E054601
:1029300004F00F0404E0013C04F00F04A6420CD0A4
:1029400004EB4401062207EB410128460AF08EF908
:102950000028F0D1044B185DF8BDFF20F8BD00BF82
:1029600094280020A82800209828002040684B6860
:10297000C01A70472DE9F04F1F46584B87B01E68AC
:102980008DF8080015468DF80910002E00F09F8084
:10299000082EBDF808C052495AD000220C4605EB5B
:1029A000070901910AE0491B002902F1010080F2A8
:1029B00093808642024604F10C0450D0238861685B
:1029C0006345A646EFD1A368B5EB010801EB030010
:1029D0008A46CB46A0EB05000BD44345E3D9A9EBCF
:1029E0000107184687422FD3ABEB0A03CEF8083015
:1029F0002AE0B1EB05080ED04745D4D387424BD22D
:102A000008EB0302CEE90152364B354831460C2221
:102A100009F0A9FF18E001990028E3D1501CB21A6F
:102A200002EB420200EB400001EB800092002146E5
:102A30000AF02CF9CDE90357284A02AB013616609B
:102A400093E8070084E80700012007B0BDE8F08F95
:102A50000B88634512D0002007B0BDE8F08F0199C4
:102A600006EB460301EB830301361C4ACDE903570D
:102A7000166002AA07CA83E80700E5E7D1E901A0CA
:102A8000B2EB0A0802EB070B14D4ABEB0A07804544
:102A9000E1D2DFF84CE0A5E7CDE9035702AB93E8BC
:102AA0000700104B8EE807000D480C22314609F054
:102AB0005AFFC9E70AEB0003BAEB0508A3EB0202D1
:102AC00008D04745C7D303468E46104696E7044BC9
:102AD0000126CAE71046DAE70199A0E70829002095
:102AE0000C2900206D2900002DE9F0476C4F3D684E
:102AF0000646894690468DB30024DFF8A8A1A44677
:102B00000CEB4C030AEB83009900D0E9013213442B
:102B10009B1B002B10DB0134A542A446F0D8DAF849
:102B20000400831B002B1DDDFF2389F800300023E8
:102B300088F80030BDE8F087A5EB0C0C0CEB4C0CD2
:102B40004FEA8C020C31013D0C3A51440AF09EF8D8
:102B5000AC423D60A446D3D3002DE0D106F1004045
:102B60000138E1E7012D4ED0DAF810309A1B002A27
:102B70004EDC022D52D0DAF81C00821B002A52DCF7
:102B8000032D56D0DAF828309A1B002A5BDC042D7E
:102B900054D0DAF83400821B002A6ADC052D63D099
:102BA000DAF840309A1B002A58DC062D51D0DAF8AA
:102BB0004C00821B002A6DDC072D66D0DAF85830F5
:102BC0009E1B002E5BDCDAF85C00082D184418D040
:102BD0000822072302EB42020AEB82025268111A12
:102BE00030EA210028BF104603EB43030AEB8302BF
:102BF0001AF8233089F80030537888F80030BDE89F
:102C0000F0870723F0E7DAF8083018440023EBE7F1
:102C1000DAF80830012218440023DBE7DAF8140060
:102C200018440123E0E7DAF81400022218440123D3
:102C3000D0E7DAF8203018440223D5E7DAF82C0080
:102C400018440323D0E7DAF8203003221844022383
:102C5000C0E7DAF8440018440523C5E7DAF838304D
:102C6000052218440423B5E7DAF838301844042361
:102C7000BAE7DAF82C00042218440323AAE7DAF8AA
:102C80005030072218440623A4E7DAF850301844DD
:102C90000623A9E7DAF8440006221844052399E739
:102CA000082900200C290020034B04480021602241
:102CB00019600AF004B800BF082900200C29002080
:102CC000002A58D02DE9F0412D4D871C4FF0000E01
:102CD00029E0CE5C62450EF1030E4FEA06264CD980
:102CE00011F80C30334343EA0443C4F38D04C3F3B7
:102CF000053615F80480AE5DC3F385144FF0000C63
:102D000003F03F032C5DEB5C68F3070C66F30F2CBC
:102D100064F3174C63F31F6C964547F802CC07F138
:102D200004030DD21F460EF101039A4211F80E4022
:102D30000EF1020C4FF00006CBD89E463346D1E789
:102D40001049A1FB023121F0010303EB5103D31A17
:102D5000012B08D0022B01D13D237B70C0F1020072
:102D60003844BDE8F0813D237B703B70C0F1020028
:102D70003844BDE8F08110467047E6460023B1E7CD
:102D800010D60000ABAAAAAA2DE9F047504F1E4664
:102D90003B78054688461446BBB94FF48072FF2144
:102DA0004C4809F08CFF4C4A4A4802F140019646D3
:102DB0000EF1010EF4468E451CF80139ACEB020C05
:102DC00000F803C0F4D101233B70A30771D1002C9C
:102DD00069D008EB0403A70813F8012C3D2A07EB80
:102DE000470706D113F8023C3D2B14BF07F1FF370C
:102DF000023F0022DFF8DCE0414610460FE002F11E
:102E0000020C4FEA1829BC4505F803905ED205F87C
:102E10000C8003320430844201F1040142D90B7862
:102E200091F802803D2B18BF1EF803A04B7808BF15
:102E30004FF0000A3D2B15BF1EF803C053464AEA67
:102E40000C034FF0000CB8F13D0F18BF1EF80890AE
:102E500091F8038014BF43EA09034FF00009B8F169
:102E60003D0F1ABF1EF8088043EA08034FF0000820
:102E700013F0C00F24D19742CCD94FEA0C3C4CEA56
:102E80008A4C4CEA891C531C4CEA0808BB424FEAA6
:102E90001C4C05F802C0B2D3043084421A4601F13A
:102EA0000401BCD83C460EB1002333602046BDE887
:102EB000F08716B14FF0FF3333600020BDE8F08794
:102EC000002EFAD06FF001033360F6E76246A1E707
:102ED0006C2A00206C2900200FD60000F0B59C4C15
:102EE00085B0A51C00260027204600F0C3FB012862
:102EF000FADD6378103B172BF6D8DFE813F00801F2
:102F0000F400EC00E3002301FE0019018300B3008C
:102F1000A40098008D00C300B900DA0079006500B4
:102F2000580073004D00480028001F0018000328B7
:102F3000DAD194F9020003F0B9FBD5E70328D3D125
:102F4000A078003818BF012002F06EFDCCE70728FA
:102F5000CADDA1780229C7D8E378032BC4D8012B96
:102F6000C2D094F804C0BCF1030FBDD8E279F52AB1
:102F7000BAD802F1080E8645B6D10846B4F8051055
:102F80000191CDF800C0734902F03EFCACE7022885
:102F9000AAD104F09BFAA7E70328A5D1A1780329B9
:102FA00086BF00210120002002F034FD9CE702389A
:102FB000102899D88110684802F0DAFC011E93DAD3
:102FC000664800F03DFA8FE70728CDE902678BD10C
:102FD00028682B7902908DF80C30DDE9020102F0AF
:102FE00083FC81E702287FF47FAF02F051FC7BE78E
:102FF00003287FF479AFA078003818BF012002F0D1
:103000006DFC71E702287FF46FAF08F07FFF544B2F
:103010000122C3F87C25FEE709287FF465AFA0787C
:103020005049003818BF012002F05CFB5CE71F2804
:103030007FF45AAFA0784C4A003818BF0120911F86
:1030400002F062FB50E705287FF74EAF63799A1DC7
:1030500082427FF449AF454A21791846638804F0DB
:103060002BF941E7811E89B2284602F021FB3BE79C
:1030700004287FF439AF608813287FF635AF02F05B
:1030800027FC31E743287FF42FAFA07803283FF6D1
:103090002BAFE2781F2A3FF627AF94F823301F2B7F
:1030A0003FF622AF0093324BA3F1200102F06EFBFA
:1030B0001AE7122813BF002127490120084600F013
:1030C00031FE11E7082813BF0021234901200846DB
:1030D00000F014FE08E703287FF406AF94F902001D
:1030E00000F006FE00E703287FF4FEAEA07800386B
:1030F00018BF012002F0D0FAF6E603287FF4F4AE00
:10310000A078003818BF012002F088FAECE60C28FD
:103110007FF4EAAEA07827283FF6E6AEE279032AEC
:103120003FF6E2AEA368D4F8031002F03BFADBE608
:1031300003287FF4D9AEA078003818BF012002F030
:10314000B1FAD1E602287FF4CFAE02F06DFACBE6F9
:10315000702A0020782A0020722A0020E8D300007C
:1031600000002043732A0020792A0020762A0020BC
:10317000942A002070B50948084D094CFFF776FAEB
:103180004FF4806003226861EA602C612A46054999
:103190000548BDE870400023FFF776BAF42F002001
:1031A0009C2B0020DD2E00009C2F0020064A0023CF
:1031B000BFF35B8F1360BFF35B8F044ABFF35B8F7A
:1031C0001360BFF35B8F70471C3000201830002065
:1031D00010B5194ABFF35B8F1368BFF35B8F174CB1
:1031E000BFF35B8FD4F800C0BFF35B8FA3EB0C037E
:1031F000062B00D910BDBFF35B8F52E8003F5C1C6B
:1032000042E8004CBCF1000FF7D1BFF35B8F03F035
:1032100007020B4B8C4602EB420103EBC10E094B3C
:1032200023F81200BCE80F00AEE80F009CE8030092
:103230008EE8030010BD00BF1C30002018300020B5
:10324000303000202030002010B51D4BBFF35B8FC5
:103250001A68BFF35B8F1B4CBFF35B8F2368BFF310
:103260005B8F9A4201D1002010BDBFF35B8F2368B2
:10327000BFF35B8F144A03F0070332F81320824236
:1032800002D0121A1204EED5104A03EB430302EBEC
:10329000C30E8C46BEE80F00ACE80F009EE80300AA
:1032A0008CE80300BFF35B8F54E8003F013344E830
:1032B0000032002AF8D1BFF35B8F012010BD00BFA0
:1032C0001C3000201830002020300020303000203A
:1032D0000E4BBFF35B8F1968BFF35B8F0C4ABFF3D4
:1032E0005B8F1268BFF35B8F91420DD0BFF35B8F92
:1032F0001B68BFF35B8F013B064803F0070303EB3A
:10330000430300EBC3007047002070471C300020CF
:1033100018300020303000202DE9F043164C174FB4
:10332000002115461FFA80F84FEA104921700E4619
:103330000A46C1F1200EA1F1200C25FA01F003FA92
:103340000EFE40EA0E0023FA0CFC40EA0C00C00717
:1033500003D5501CB9540126C2B201312529E8D148
:1033600006B122700649074A88EA0908C2E90053F3
:10337000A1F80080BDE8F08319310020F43000206E
:10338000F030002020310020274B28491B8858406E
:10339000C0F30722C0B210B48C5C0A5C42EA04227B
:1033A00002EB02121A44C2F30720D2B2085C8A5C14
:1033B00042EA002202EB02121A44C2F30720D2B200
:1033C0000C5C8A5C1A481B4942EA042202EB021296
:1033D0001A4453409BB2A0FB03201A1A00EB520080
:1033E000400900EBC00200EB8200181AD1E900246A
:1033F00080B2C0F1200104FA01F1C2400A43A0F1F9
:10340000200124FA01F10A43D20709D40A4A0B49E0
:1034100012785DF8044B02FB03F31B14C85C704781
:10342000C0B25DF8044B7047F030002050D6000069
:103430004D91CFBA2031002019310020F430002006
:103440000FB410B5A6B028AB039953F8042B019321
:103450000024C1F30E01CDE902414FF4205106A82A
:10346000ADF810108021059009F0F2FBBDF80C308A
:10347000024662F30D0302A8ADF80C3000F050FBD9
:1034800026B0BDE8104004B0704700BF024B0022D8
:103490001A7002F04DBC00BF2C31002000B585B081
:1034A00001A8FDF7F3F9064801AA0021FDF7ECFF9A
:1034B000044B186010B105B05DF804FBFEE700BFD7
:1034C0008D3400003031002008B902F031BC0C49C5
:1034D00038B50C4DA1FB00310446C9082868FDF73A
:1034E000DBF9094B01221A7004F0E0FF074A00EBF8
:1034F000840414602868BDE83840FDF77BBF00BF36
:10350000CDCCCCCC303100202C3100202831002013
:103510000E4B1B7803B9704770B50D4E05463068E9
:10352000FDF7BCF90B4B1C6804F0C0FF04EB8504ED
:10353000211A094B30688908A3FB0131C908FDF73E
:10354000ABF93068BDE87040FDF754BF2C31002066
:103550003031002028310020CDCCCCCC024B0022D1
:103560001A7003F015B900BF3831002000B585B0DE
:1035700001A8FDF78BF9064801AA0021FDF784FF99
:10358000044B186010B105B05DF804FBFEE700BF06
:103590005D3500003C3100202DE9F041044678B94A
:1035A0001A4D2B781BB9BDE8F04103F0F1B8184B68
:1035B0001868FDF773F92C70BDE8F04103F0E8B826
:1035C000124FDFF8548004F071FF3B7800EB840564
:1035D0002BB1D8F800305B1BB3F1004F13D80C4E61
:1035E0003068FDF75BF90B4B3068A3FB0431C90869
:1035F000FDF752F9012330683B70C8F80050BDE870
:10360000F041FDF7F7BEBDE8F08100BF3831002082
:103610003C310020CDCCCCCC3431002008B5FCF7B7
:1036200077FE01F05FFD00F025FAFFF7A3FDFFF73D
:1036300035FFFFF79BFFFDF7BDF9002008BD00BF78
:1036400000B58BB001A807F07DF94FF4612300208D
:1036500001A907938DF8180007F0D4FC044AB0FACA
:1036600080F35B09106058420BB05DF804FB00BFAB
:10367000683400202DE9F043954E964D87B004AB99
:10368000012231460746286807F09AFA4FF4FA7388
:103690000093286804AB0522711C07F087F9049B8E
:1036A000042B40F2A8800DF10C0843460422314659
:1036B0003846FFF769FB039B002BC0F2E4803C789F
:1036C00004EB4403B3F5967F00F3B980012C14DCBE
:1036D00016F824300D2B4FEA840268D11644737813
:1036E0000A2B64D143467A493846FFF74DFB039BCA
:1036F000002B36DB07B0BDE8F0834FF4FA6204F12B
:10370000FF3900924FEA890904AB28684A46B11D87
:1037100007F04CF9049B4B45DAD200238DF80B30AF
:1037200005AE0DF10B07334628680122394607F034
:1037300047FA9DF80B300D2BF5D10024334628684D
:103740000122394607F03CFA9DF80B300A2B08BFDE
:1037500044F001040D2BF1D0002CE4D06FF00300F5
:10376000C8E700238DF80B3005AE0DF10B0733468B
:1037700028680122394607F023FA9DF80B300D2BFB
:10378000F5D10024334628680122394607F018FA9B
:103790009DF80B300A2B08BF44F001040D2BF1D02B
:1037A000002CE4D003980A3807B0BDE8F08300236A
:1037B0008DF80B3005AE0DF10B073346286801225A
:1037C000394607F0FDF99DF80B300D2BF5D100249B
:1037D000334628680122394607F0F2F99DF80B308C
:1037E0000A2B08BF44F001040D2BF1D0002CE4D0CB
:1037F0006FF004007EE700238DF80C3005AE0DF16C
:103800000C08334628680122414607F0D9F99DF893
:103810000C300D2BF5D10024334628680122414697
:1038200007F0CEF99DF80C300A2B08BF44F00104D4
:103830000D2BF1D0002CE4D04FF0FF305AE70023DD
:103840008DF80B3005AE0DF10B07334628680122C9
:10385000394607F0B5F99DF80B300D2BF5D1002452
:10386000334628680122394607F0AAF99DF80B3043
:103870000A2B08BF44F001040D2BF1D0002CE4D03A
:103880006FF0020036E700238DF80B3005AE0DF126
:103890000B07334628680122394607F091F99DF855
:1038A0000B300D2BF5D10024334628680122394610
:1038B00007F086F99DF80B300A2B08BF44F001048D
:1038C0000D2BF1D0002CE4D06FF0010012E700BF07
:1038D000D432002068340020F0B50D4E0A4683B083
:1038E00001463046FFF7ECF940F60D23841C3352B5
:1038F0000BD0084F002501AB22467119386807F03C
:10390000D3FA019BE41A1D44F5D103B0F0BD00BF0A
:1039100040310020683400202DE9F84F4B4DDFF88E
:1039200050814B4E4B4C4C4FDFF84091D8F8000083
:103930004FF0FF31FEF7D4FC3068012106F058F853
:10394000BFF35B8F2368BFF35B8F03F0070307EBC5
:1039500003101B018288C2F30D0ABAF5827F1ED8BC
:1039600090F809E0C1680EF03F02283A032A4DD8CA
:10397000DFE802F02C3A25021423524637486B70D8
:1039800085F802A009F0A3F90AF1050389FB0323D6
:10399000DBB20AF1030128462B70FFF79DFF306868
:1039A000002106F025F8BFF35B8F54E8003F013398
:1039B00044E80032002AF8D1BFF35B8FB6E7132347
:1039C0006B700B78AB7003210123E4E7112352469F
:1039D00023486B7009F07BF90AF1040389FB032388
:1039E000DBB20AF10201D6E7FB581E4812229B08FF
:1039F0006A705246C5F8023009F069F90AF1080305
:103A000089FB0323DBB20AF10601C4E7FB5885F802
:103A10000BE09B08C5F8023043791B0203F44043D6
:103A200043EA0A03EB80C3882B81037AAB725246C8
:103A300010230D486B7009F04AF90C4A0AF10E0385
:103A400082FB0323DBB20AF10C01A4E76C340020F3
:103A5000403E002098350020A03500206F34002023
:103A60006E340020723400207834002056555555AD
:103A7000643E002030B5214B214A03F5027183B02A
:103A800003F58270D16203F58261D360D061D164A5
:103A900003F2145003F5C36103F5437403F21C737E
:103AA000D065D166D367D46305F024FE0020694653
:103AB00005F004FF134B1860D8B1002211461046E0
:103AC000FDF740FD104B114D1860FFF7B9FD0F4891
:103AD0000F4CFEF7CBFD4FF4806003226861EA6073
:103AE0000C490D482C6100232A46FEF7CDFD03B09A
:103AF00030BD0A48FEF7D4FEDFE700BF20360020C5
:103B0000A0350020403E0020643E0020C04200203E
:103B1000683E0020193900006842002004D40000EB
:103B2000F8B5437A03F03F03272B044659D9A388FD
:103B3000C3F30D03B3F5827F00D9F8BD614ABFF32B
:103B40005B8F1368BFF35B8F5F49BFF35B8F0968BF
:103B5000BFF35B8F5B1A03F00703072BEDD0BFF3B6
:103B60005B8F52E8003F591C42E800100028F8D152
:103B7000BFF35B8F554FA288E16803F0070307EBA3
:103B80000315C2F30D02E8681E0109F0A0F8A2882F
:103B9000AB884F4962F30D03AB8063796A79C3F355
:103BA000801363F386126A716379D2B2DB0963F31F
:103BB000C7126A71E388EB8094F908302B7223688E
:103BC000BB516B7A627A086862F305036B72637AA1
:103BD0006A7A9B0963F387126A72BDE8F840FDF7C1
:103BE000E3BD01F09BFA78B13A4A637911783A4A19
:103BF00061F3C71363711368E38063795B0696D43E
:103C0000204601F099FA92E7344B94F9082093F991
:103C100000309A4291DB324B197819B9314B1B783D
:103C2000002BEAD0A388C3F30D03012B85D9E068EC
:103C30000578012205F00F06B24012F0570F31D17E
:103C400012F4C07F18D112F0280F3FF476AF0D2B7D
:103C50007FF673AF00F10803ED0951BB214A1278DA
:103C6000002ACAD0002D3FF468AF1F48194602F061
:103C700099FD0028C1D1F8BD022B3FF45EAF8278D8
:103C800002F03F02961C9E42BFF657AF002AB4D006
:103C9000C378DE07B1D5062A7FF64FAF031DC5F303
:103CA0008015DAE7072B7FF648AF831CC5F3801534
:103CB000D3E70E490622184608F0D8FF00289CD00A
:103CC000F8BD00BF9C35002098350020A0350020AD
:103CD000643E0020E4420020A0440020F41B0020A9
:103CE000583E0020443E0020483E00205C3E00201C
:103CF000014B1870704700BFF41B0020034621B130
:103D0000054A08681060898891800448044A037055
:103D100000211170704700BF5C3E0020583E00201B
:103D2000443E002010B4844631B10B4608689A68BE
:103D3000064C4968DB680FC40549064B5DF8044B27
:103D400081F800C000221A70704700BF483E002072
:103D5000443E0020583E002000680B68C01A70479F
:103D600010B586B00B4A039B107003F4404300214A
:103D700043F001038DF807004FF428520DF10704BA
:103D800002A8CDE902130594ADF81020FFF7C8FE94
:103D900006B010BDCA440020274A284B1178D3E949
:103DA000002319B126490868FFF7B6BA30B50C46AA
:103DB0008BB0C1F1200EA1F1200C22FA01F003FA20
:103DC0000EFE40EA0E0023FA0CFC40EA0C00C50788
:103DD00004D50DEB040001340170E4B20131252952
:103DE000E7D1184D0021C1F1200EA1F1200C22FADB
:103DF00001F003FA0EFE23FA0CFC40EA0E0040EA42
:103E00000C00C0075FFA81FC0FD4BCFBF4F004FB8C
:103E100010CC0AA850FA8CFC01311CF8280C05F8CB
:103E2000010F2529DFD10BB030BD0131252905F85F
:103E300001CFD8D10BB030BD9A440020B04400204F
:103E4000001C0020CB4400202DE9F0411546304AEB
:103E5000304C98462B6813606A7D6B6807462E4885
:103E600002F01F0202702D480E4623F07F410160D0
:103E70002B482C49027000220A7000200021C4E95E
:103E80000001637D286920602A7D227143F00203CE
:103E90006375FFF781FFB8F1000F36D0BB1E42F209
:103EA000107243F69820012B8CBF11460146627DAB
:103EB0006B89B5F808C0277522F0050242F00502AB
:103EC0006275AA896282A6F5FA6641F2883202FB1F
:103ED00003F302FB0C661E440E44E8891249A360FA
:103EE00049F6404203EB43030E60104D104906EBC8
:103EF000430300FB02F20F4EE260002233602A60AF
:103F0000BDE8F0410A60FFF751B941F28831CEE7D0
:103F1000001C0020B0440020AC440020A844002035
:103F2000AD44002099440020A4440020A044002077
:103F3000544400209C4400202DE9F04186B0254ADD
:103F4000039B254C1278227003F4404343F0010395
:103F500002A80DF1070700254FF42856CDE90253BA
:103F60008DF807200597ADF81060FFF7D9FD1B4BC2
:103F70001B4A1A60FEF798FE2378042B04D0DFF862
:103F8000748098F8003013B906B0BDE8F081039B47
:103F9000144A029503F44043156043F00103124AAA
:103FA0000393124B157002A8012549F640429A600E
:103FB0000597ADF8106025708DF80750FFF7B0FD3C
:103FC0000B4B88F800501A221A6006B0BDE8F04189
:103FD00002F0DEBBC9440020CA440020001C0020BF
:103FE000D6BE898EA044002098440020B044002012
:103FF000FC1B0020394400202DE9F043A34B1A7824
:1040000087B004460AB100297AD0A14D2978032946
:1040100004D1A04A137883F001031370A388C3F37B
:104020000D03012B20D9E3681A7893F8018093F8E7
:10403000029002F00307D20608D4964B96481B78EC
:1040400001229A40037823EA02030370934E3378E7
:1040500043B1934B1B782BB18F4B1B7813B90329BA
:1040600000F08280032F02D007B0BDE8F083A38860
:10407000C3F30D03023B4345F6D1FFF729F9894B02
:10408000002814BF07461F463378002B40F02081DC
:10409000B9F1180FE8D801A353F829F01D42000028
:1040A000D3410000754100006940000069400000F4
:1040B0006F41000069400000694000006940000055
:1040C000694000006940000069400000694000004C
:1040D000694000006940000069400000694000003C
:1040E000694000006940000069400000694000002C
:1040F00069400000694000006940000087410000FD
:1041000019706848684B82681D686849521B2568A9
:104110000B682A44664D45F82320013303F003035E
:104120000B605F4B21681B78624A6BB1407D13685E
:104130004607A1EB030309D45F48604D03F6C4139F
:10414000A0FB03031B0B2B8011605EE7C507FBD4AC
:104150004007F9D55A4D286802289CBF594E46F8A9
:10416000203001302860EFE702F012FB7AE70123EC
:10417000337079E7B8F1020F7FF476AF07B0BDE88E
:10418000F043FFF7D9BEB8F1050F7FF46DAF3E469F
:104190000FCE6D460FC596E8030085E80300D4F8FE
:1041A0000CC00024ADF810409CF8033003F0070366
:1041B000022B00F04381042B00F03E81012B00D044
:1041C0003C7D8DF81440BCF805006946FFF700F807
:1041D0004AE7B8F1080F7FF447AF0FCF6D460FC520
:1041E00097E803000022002385E80300CDE90023BF
:1041F000E4689DF81530D4F803000090E2798DF85A
:1042000004204FF0000C43F002038DF81530ADF898
:1042100010C020896946FEF7DBFF25E7B8F10C0FD7
:104220007FF422AF0FCF6D460FC597E8030085E8F6
:104230000300E4689DF81530A288ADF8102023F043
:10424000050343F00503E2888DF81530E388ADF8E7
:1042500012306389A08941F2883C49F6404606FB4A
:1042600003F30CFB02F26946CDE90223FEF7B0FF2F
:10427000154B1B68002B3FF4F7AE14490A68013B4D
:1042800093427FF6F1AE01320A60EDE694440020DD
:10429000CA440020E44200203A440020994400200F
:1042A000F91B0020B0440020A44400207C440020DE
:1042B00080440020784400205917B7D13E440020A4
:1042C000684400206C4400205844002054440020DE
:1042D000B8F1090F46D0B8F10C0F61D0B8F1100F4A
:1042E0007FF4C2AE564BE2881E68002E7FD055493F
:1042F0000B68013E9E4202D9581C08601E46524B74
:1043000003EB860133F826E04E8841F28830BC4644
:1043100000FB0EFE1644BCE80F006D460FC59CE87E
:10432000030085E803009DF81530CDF808E023F080
:1043300007034FF0000843F00303B0B26946ADF83D
:1043400010808DF81530FEF743FFBB683F4A4048A8
:10435000404903F6C413A2FB03231B0BE28802802F
:104360000B8081E63C4B1D78002D7FF47DAE3B4AEF
:104370003B7D92F800C063453FF476AE0FCF6E46AA
:104380000FC6E48897E80300073486E8030069460F
:10439000A0B2ADF810508DF814C0FEF719FF63E617
:1043A0002B78062B3FF460AE7B7DDB077FF55CAEA0
:1043B0000FCF6D460FC597E8030085E80300E4883A
:1043C0009DF81530093423F007034FF4202C4FF0EB
:1043D000FF361F2743F005036946A0B2CDE9006709
:1043E000CDF810C08DF81530FEF7F2FE3CE62B78C4
:1043F000062BAAD01A4B1B78002BA6D0BE46951DC3
:10440000BEE80F00EC46ACE80F009EE803008CE825
:1044100003009DF81530DFF84C80CDF8088023F0BC
:10442000070343F002036946A8B2ADF810608DF8A7
:104430001530FEF7CDFE88E70224C2E60124C0E66F
:104440005844002054440020444400205917B7D158
:1044500042440020404400203C440020FB1B00203C
:10446000F91B0020804F1200F0B58FB004460F46B4
:1044700004F01CF8294B00901B7800228DF80820CE
:10448000002B45D1264B274A1B78D35C264A24684B
:10449000127D03F03F0343EA821304AA8DF809302A
:1044A00003929CB397B3214E002501E0AF422DD07B
:1044B000E3885A1E90B2262824D8A168087800F014
:1044C000030CBCF1030F1DD131F803C0BCF1000F88
:1044D00001D1B6F800C08DF81000BDF80400ADF8A9
:1044E00006C0013363F30D00D2B20131ADF8040010
:1044F0000DF112008DF8112008F0E9FB012168464A
:10450000FFF77AFD24680135002CCFD10FB0F0BD44
:10451000064B1868FEF738FF0346B7E79A440020B9
:10452000AD440020CC440020B0440020A044002032
:104530002DE9F0470C4686B0054603F0B7FF002C86
:1045400037D08E4C8E4AE36803441360637D9E0728
:1045500039D5002D40F07D818A4FDFF87C823868A4
:10456000894E8A4B98F800201B781A44884B83FBAD
:10457000021313445B1103EBC301013003EB81030E
:104580003860D21A7D4988F8002080B2FEF75CFEC0
:10459000002877D135B1637DDA0703D53B689B07E7
:1045A00000F0DE803268A3681344336006B0BDE8D3
:1045B000F087734B1B681B1AB3F1004F7FD86F4C09
:1045C000637D9E07C5D4002DC6D0724B1B78002B8F
:1045D00040F0BF80DFF800826F4A98F80030694FE2
:1045E000D05C6E4BDFF8CCA11978A0F12006012336
:1045F000C0F1200203FA06F623FA02F2164303FA88
:1046000000F9DAE9003231B109EA030106EA0200F1
:10461000014300F0338149EA030316431F2E08BF0C
:10462000B3F1FF3FCAE9003600F01F815C4B1B78F5
:104630002BB35A4B1B78002B40F0D280637D590777
:1046400000F1D180574A5849B2F800C00A8813F0E7
:10465000010940F03E815548068838689445A0EB32
:104660000606B6B200F01781ACEB020243F0040379
:1046700090B2637502F0ECFE304602F007FF386836
:10468000414E6EE73368228A41F2883101FB0233E2
:104690003360FFF781FB424B1B7833B1637DD80752
:1046A00003D4434B4FF0FF321A60637D99073FF507
:1046B00071AF404B00200021C3E900016AE7039B72
:1046C0003D4A3E4D12782A7003F4404343F0010303
:1046D00002A80DF107074FF42856CDE902438DF8E3
:1046E00007200597ADF81060FFF71AFA344B354AEA
:1046F0001A60FEF7D9FA2B78042B3FF457AFDFF896
:10470000DC8098F80030002B3FF450AF039B1D4A2B
:10471000029403F44043146043F001032A4A0393D4
:10472000164B147002A8012449F640429A6005977E
:10473000ADF810602C708DF80740FFF7F1F9234BAE
:1047400088F800401A221A6006B0BDE8F04702F06F
:104750001FB80C4FDFF880803868FEF715FE40E781
:104760001B4D1C4B04221146284608F0FCF8326809
:10477000AB681A44A2F5FA6215E700BFB044002006
:104780009C440020A0440020A4440020AC4400200D
:10479000A7C867DD9A440020CC4400209444002040
:1047A000F91B00203E4400204044002042440020E9
:1047B0006844002060440020C9440020CA4400200E
:1047C000001C0020D6BE898E98440020FC1B0020CF
:1047D00080440020593D0000AD44002039440020B1
:1047E000637DD80739D4637DDA073FF548AF5E07AC
:1047F0007FF545AF424B1B68033B05333FF63FAFA8
:10480000404E414B04220321304608F0ACF870685A
:104810003E4B3F4E00F6C410A3FB0030637D43F0D7
:104820000103000B637541F2883300FB03F380B290
:10483000A36002F0B9FD374B374A1968A36838689E
:104840009FED2D7B0B4482ED007B82ED027B33607C
:1048500087E6324FDFF8CC80E8E62E4AA36811687D
:1048600038682B4E0B4413607BE6637DD4E900016E
:1048700043F00203637502F0B3FDD7E6236823EA31
:1048800009032360636823EA06036360FFF784FA81
:10489000DAE90032BFE60C2E7FF6F2AE23F0050314
:1048A00043F0050363751B4B194E1A6841F28833B8
:1048B00003FB0CF31A444846A360326002F0C8FDC3
:1048C000484602F0E3FD1649088802F06DFD38689D
:1048D00047E60F4E43F00403ACEB02026375336806
:1048E00090B241F2883202FB0033336002F0B0FD37
:1048F000386836E6AFF30080D0070000D00700002C
:10490000684400206C440020593D00005917B7D17D
:10491000A44400207844002080440020A0440020CB
:1049200040440020AD4400202DE9F04F95B001F047
:10493000CFF802F053FC924CDFF8C8B2DFF8C8920F
:10494000904EDFF8C8820DF1380A2378002B52D040
:10495000012B00F04B82022B00F08782033B072BD8
:1049600000F2A283DFE813F003023502B001540124
:10497000AF008E007100080000238BF8003089F82A
:104980000030814B1F8803F091FD804B804A1B88CB
:10499000059305467F488049037804937F4B804800
:1049A0001B7803937F4B1B7802937F4B1B780193FB
:1049B0007E4B1B78009312787D4B01F01DFD7548EE
:1049C0007C4B0278013283FB021313445B1103EB2F
:1049D000C30103EB8103D21A237802700A2BB4D1EE
:1049E00005F007053D44642005FB00F0FDF788F95C
:1049F0002378002BACD18BF8003089F800306E4B57
:104A00001B78002B00F0E48203F050FD10AA514601
:104A10000546FEF769F8451BB5F5FA6F034694D4D1
:104A20009DF83810FF2900F016839DF84000634A76
:104A300000935B4B0393624B1B780293002301931B
:104A4000604B1B6801F072F87FE75B4B5C4D197897
:104A50005D4B2D7818784E4B00221B788BF8002088
:104A600089F80020002900F06382CDE901354C4B24
:104A70000393494B0093554B01461878012301F0ED
:104A800061F962E700238BF8003089F800303E4B73
:104A90001F8803F00BFD4E4B01934E4B3C4A1B7895
:104AA00003934D4B3C491B780293404B1B7800937A
:104AB00012783F4B05463A4801F0E2FB2378082B79
:104AC0007FF443AF8CE7727D002350078BF80030F2
:104AD00089F8003048BF1F46404B58BFB7681B7865
:104AE000002B40F08E823E4B3E4A1B78D55C5046F0
:104AF00002F01EFC0DAB0493294B0193D8F8003053
:104B0000CDF808A03B44009300230393364A9AE86B
:104B1000030001231370354B354A1B68126810AF30
:104B200087E803002946307D01F066FA23780D9965
:104B3000072B074640F0568110A8FFF795FC0D980B
:104B400002F01CFCD8F8005003F0B0FC294A2B1AE4
:104B50006FF4FA61591891420BD8274A127812B1B2
:104B6000264A12782AB9264AA2FB03235809FDF7E0
:104B7000C7F8B7FA87F149090120FFF7D9FCE4E645
:104B8000CA440020B0440020F61B00200844002046
:104B90003744002007440020304400200A4400200D
:104BA000213B00000B4400200C4400200644002060
:104BB00008430020A7C867DD38440020D6BE898E90
:104BC000F81B0020041C0020081C0020C844002002
:104BD000E84200200D440020074300209A440020B2
:104BE000AD440020CC44002094440020A844002080
:104BF000001C00202DF8FF7F99440020F91B0020A5
:104C0000CDCCCCCCE442002095440020A44400202C
:104C1000AC4B1A7800238BF8003089F800300D93E4
:104C2000002A40F0CF81A84BA84A1B78D35C099397
:104C3000504602F07DFBA64AD8F80070757D00232F
:104C40009AE8030013700122B3688BF800200DF17D
:104C5000400C07F5FA6215F004058CE80300A2EB9E
:104C6000030200F079810DAB04939A4B03920193F8
:104C7000994A9A4B0097CDF808A01B6809991268C9
:104C8000307D01F033F9034622780D99062A40F071
:104C9000A98010A80993FFF7E7FB0D9802F06EFBBF
:104CA000D8F8005003F002FC8D4A099B281A6FF4D3
:104CB000FA654119914240F2B181B3FA83F1490991
:104CC0000020FFF735FC40E60DF13303CDE906A3E4
:104CD000844B0593844B0393844B0193844A7D4B0F
:104CE000009312780492834A12780292824A1178D1
:104CF000824A0025012310788BF800302A4689F873
:104D0000005001F011FA2378052B7FF41EAEA84263
:104D1000C0F2AC81031E6B4A18BF01230128137037
:104D20009DF833006F4AD4BF002301232946FFF7C3
:104D30008BF8B3680E9A1344A3F5FA63C8F80030F1
:104D400001F0E6F90DAB1393119B109503F440436A
:104D500043F001031193062323708DF8343010A81B
:104D60004FF42853ADF84830FEF7DAFEEDE5554B29
:104D70001A7800238BF8003089F80030002A40F0C0
:104D80003A81514B514A1B78D15C737D514A039251
:104D90005F07D8F8002058BFB3684D4F307D48BF3B
:104DA000002313440093564B564A1B78029300236A
:104DB000019303231370494B474A1B68126801256E
:104DC0003D7000F0B3FE397828466940FFF7B0FB2C
:104DD000BBE5002364208BF8003089F80030FCF735
:104DE0008FFFB2E5084602F0C9FAAEE5464B4749E7
:104DF0001A7800230B7046498BF8003089F8003090
:104E00000B7012B14348FEF7C7FB434B3C4A1B688B
:104E1000127823B1414B1B78002B00F0F8802D4B0A
:104E20003F49002000F0DCFE2378012B7FF48DAD9C
:104E3000364A127862B9364A12784AB9324A12783A
:104E4000002A40F02781354A12780AB9334A137094
:104E5000314B1B68042B7FF678ADB068800802F0F8
:104E6000DDFA0220FEF77CFF6FE5274B2D491A780B
:104E700000238BF8003089F800300B70002A60D0D6
:104E800003F014FB10AA51460546FDF72DFE451B05
:104E9000B5F5FA6F07463FF558AD9DF83810FF2974
:104EA00000F0E7800023CDE900030A4B0393144B85
:104EB0009DF840001B7802931B4A1C4B00F036FE05
:104EC00043E500BF9A440020AD440020CC440020BC
:104ED00094440020213B0000001C0020A844002036
:104EE0002DF8FF7F1044002028440020304400208B
:104EF0003644002037440020081C0020C84400200D
:104F0000F81B00203A440020384400209744002039
:104F100096440020C0C62D00A044002098440020E4
:104F2000C05701003B440020D6BE898E5555550020
:104F3000CDE900355D4B029301225D4B00F074FF1B
:104F400003E5B0685B4A594B127800F59C51083173
:104F50003C3800F045FEF8E457490B92A1FB0313DF
:104F60000020C3F30F330021CDE90E010A93284638
:104F700041F2883303FB05F72378062B56D10DAB9E
:104F800004934A4B0193D8F800304C4ACDF808A05E
:104F90003B4400930B9B307D0999FB180393484BCE
:104FA00012681B6800F0A2FF6B1C002844D09DB261
:104FB0000A9BAB42DCD2034642480993FEF740FA13
:104FC000099B61E6404B1868FEF7DEF909902FE671
:104FD0000093364B0393374B384A1B7802930123D7
:104FE00001933A493A4B3B481B68126809780078AC
:104FF00000F09CFDA9E4344B1868FEF7C5F90146A2
:10500000C3E6314B1868FEF7BFF905466FE5274B3D
:1050100031494FF4E16000F0E3FD05E72F4AA2FBC0
:1050200000204009FCF76CFE099B46E603460A9AFD
:10503000AA42BFF429AEBFE7727D099042F0040294
:105040002846727502F004FAD8F80020099B3A4409
:10505000C8F80020EBE71D4A11781E4A8DF8381079
:105060001078164A8DF840001268E1E4FEF764FFFC
:105070006BE403F01BFA381A8008FEF78DFAB0686B
:105080000C4A0A4B127800F59C5108313C3800F06C
:10509000A7FD5AE44FF42C631148B360FEF7D0F932
:1050A0000220FEF75DFE50E4FEE700BF213B00005A
:1050B00030440020F81B00205917B7D1001C0020F5
:1050C000A844002058D40000A0440020081C002060
:1050D000041C0020C8440020C0570100CDCCCCCC1B
:1050E00030D4000070B50948084D094CFDF7BEFAF0
:1050F0004FF4806003226861EA602C612A4605490A
:105100000548BDE870400023FDF7BEBA4C490020B9
:10511000F444002029490000F4480020054B187889
:10512000032805D0063801288CBF002001207047D5
:1051300001207047CA4400202DE9F04FB94D95F881
:1051400000C0BCF1030F89B0044603D0ACF10603E4
:10515000012B04D8637A03F03F03242B33D9A388AF
:10516000C3F30D02012A0192134617D9E26892F89F
:1051700001805E1E4645104610DD167806F00F07CA
:10518000022F06F00E090CD9062F0AD0042F40F08A
:105190008780A54A1360B9F1000F0DD009B0BDE8B2
:1051A000F08FBCF1010F15D0BCF1020F51D0B9F155
:1051B000000FF3D1167810463146023009B0BDE831
:1051C000F04FFDF793BB0021204609B0BDE8F04F3A
:1051D000FEF712BF637A03F03F03252B00F0E38054
:1051E000262B00F08280272BE1D1DFF860C29CF8EB
:1051F0000030002BDBD1DFF858A28C4B8C4893F8A1
:1052000000E0DAF80030D4F800B00133CAF800301A
:105210000368C0F800B0ABEB030001238CF800304A
:10522000BEF1000F00D14008824B996881420AD933
:10523000BDF904109860A0EB4110B0F5BE6FB6D276
:105240007D4B01221A70B9F1000F40F0A281E26893
:10525000B0E7617A01F03F012529A8D1774A10789B
:10526000744A91682268002800F0A780022F00F09D
:10527000A480A1F51671B1F5FF6FD4BF02EB010A4E
:1052800002F5FF6A08330AEB431A03F00FF9BAEB91
:10529000000A54BF4FEA9A000020FEF715F9D2E742
:1052A000032F40F0E780637A03F03F03252B05D0FE
:1052B000B9F1000F80D009B0BDE8F08FBCF1020F4A
:1052C000F6D15F4D2B78002BF2D1574B1868C000F8
:1052D00000F58770FEF71CF901232B70B9F1000F60
:1052E0007FF45CAFE068067866E7DFF840C19CF8C1
:1052F0000030002B66D0B9F1000F3FF45BAF052FF3
:105300002ED14E4B1B78002B3FF448AFB8F1220F43
:105310007FF444AF607A2A7800F03F07242F8CBFD7
:1053200000230123082A4FEA661675D0DFF818819A
:10533000E26888F80030242F02D9F10700F18A8052
:1053400021680E328009FEF77FFD2B7803F0FD0304
:10535000082B4AD0242F0BD83A4B01221A701DE794
:10536000384B1B78002B3FF419AF082F7FF416AF92
:10537000059B03F44043002143F001030322CDE9E0
:1053800004130DF10F042A708DF80F204FF42852EA
:1053900004A80794ADF81820FEF7C2FB09B0BDE8D9
:1053A000F04F01F0F5B9224B22681A6000F0C0FC02
:1053B000B9F1000F7FF4F2AE49E7A1F5966101EB78
:1053C000020A62E7DFF888A0DFF864E0DAF800306C
:1053D00020680133CAF80030DEF80030CEF8000053
:1053E000C01A01238CF800301EE700F091FE059BE7
:1053F00003F4404307220DF10F00002443F00103A2
:105400004FF428510790CDE904432A708DF80F20FE
:1054100004A8ADF81810BFE70B4A06F00106167095
:10542000E2688DE7CA440020FC1B0020974400205E
:1054300090440020B044002098440020FA1B002033
:105440003B440020954400209A44002096440020CC
:10545000A044002002F108000193FDF763FAFF2841
:10546000019B04D0820644BF012288F80020607AA4
:10547000E26865E7B9F1000F3FF49CAE072F7FF4B7
:105480003EAF464B1B78002B3FF488AE2B78012BA8
:105490003FF484AEB8F1000F3FF480AE917801F094
:1054A0003F05A8457FF67AAE11F03E0F3FF476AE89
:1054B000D078C7074DBF10210A2104260A2610F014
:1054C000020F08BF3146460744BF0131C9B2070782
:1054D00044BF0231C9B210F010061DBF521803318B
:1054E000C9B23246860644BF1231C9B2400644BF33
:1054F0000131C9B20239A942D8BF691C8845FFF6FB
:105500004DAE002A3FF44AAE092B3FF447AE9578E2
:105510001678537824685F2D4FEA052202F4F8527A
:105520004FEA551188BF012116F0800F13440CBFBC
:105530001E224FF4967213FB02F3B3F5FA7FACBF51
:10554000A3F5FA73002306F03F0004EB8304C1B116
:10555000134A42F2F033012918BF13462246FDF7E1
:1055600009FA02F0A3FF201AB0F1004F0CD844F65C
:105570001F6398420AD8800809B0BDE8F04FFEF7D3
:105580000BB843F2B063E9E70020F4E741F288305A
:10559000F2E7052F3FF4B5AE00E600BF3844002027
:1055A000F04F0100272800D9704730B50D4687B06D
:1055B00014490A70039A144902F4404208701348CF
:1055C000134923F07F4342F0010200240392036059
:1055D0004FF428520DF1070302A80C700593ADF8A3
:1055E00010208DF807400294FEF79AFA094A0A4BF8
:1055F00015601C70FDF758FB07B0BDE8304001F0A6
:10560000C7B800BFC8440020081C0020041C0020AC
:10561000CA440020001C002039440020014B1870AF
:10562000704700BFFA1B002030B587B0144D039BB4
:10563000144C1549154800222A6049F64045A560DA
:105640000A7001240DF1070103F4404343F0010304
:105650000470059102A84FF42851CDE90223ADF85A
:1056600010108DF80740FEF75BFA0949094B0C70E2
:105670001A221A6007B0BDE8304001F089B800BFB7
:10568000A0440020B044002098440020CA440020D8
:1056900039440020FC1B0020014B8000187070472B
:1056A000C9440020014B1870FDF7FEBA38440020B1
:1056B00030B585B005460C4602F0F8FE019B039517
:1056C000C4F30D0403F4804301464FF424522343F2
:1056D000684600910193ADF80820FEF721FA05B065
:1056E00030BD00BF064B8446086810B41860054CF6
:1056F0008A889A8084F800C05DF8044B704700BF28
:10570000304400203744002030B51C4B1C4C05466B
:10571000086887B0186094468A889A80194BDCF82C
:105720000000DCF80410DCF808201D70DCF80C30F8
:105730000FC4039BDCF8100013492060BCF8140070
:10574000A080052203F4404343F001030A708DF862
:10575000072002A84FF428520DF107050024CDE9D7
:105760000243ADF810200595FEF7DAF901F010F8C4
:1057700007B0BDE8304001F031BD00BF2844002033
:105780001044002036440020CA44002030B51C4696
:10579000174B87B01870174B9DF828501A70164B8E
:1057A00016481D7007F093FA2A462146144807F060
:1057B0008EFA039B1348082203F44043002143F070
:1057C000010302708DF8072002A84FF428520DF152
:1057D0000704CDE90213ADF810200594FEF7A0F9F7
:1057E00000F0D6FF07B0BDE8304001F0F7BC00BFC5
:1057F0000D440020064400200743002008430020F9
:10580000E8420020CA44002010B5194C86B0207030
:10581000184C19482370194B0270002418489DF841
:1058200020C01C70174B80F800C0BDF82400188001
:10583000154807F04CFA039B14490A220DF10700A2
:1058400003F4404343F001030A7005904FF42851DC
:1058500002A8CDE902438DF80720ADF81010FEF73D
:105860005FF900F095FF06B0BDE8104001F0B6BC4E
:105870000C4400200B440020064400200744002074
:105880000A4400200844002008430020CA440020A5
:1058900010B586B00D48039B092203F44043002154
:1058A00043F0010302708DF807200DF107044FF457
:1058B000285202A8CDE902130594ADF81020FEF796
:1058C0002FF906B0BDE8104000F062BFCA440020C6
:1058D000014B1880704700BFF61B0020014B187069
:1058E000704700BFF91B002000B51E4B1B7889B024
:1058F000032BCDE9000102D0063B012B2ED8FDF78A
:10590000E7FC194B002814BF86469E46BEE80F00F0
:105910000DF1080CACE80F009EE80300019B134A50
:105920008CE8030003F01F03019300200021CDE960
:10593000020112689DF81D30DDE9000101324FF0CF
:10594000000C02908DF80C1043F0020302A990B2F3
:105950008DF81D30ADF818C0FDF73AFC09B05DF8C0
:1059600004FB00BFCA440020B0440020A044002033
:10597000042910B50C4644D80146002C31D00388C8
:10598000063B40F67A429BB2934234D84388063BAA
:1059900047F6F9709BB2834230D8012C21D08B8816
:1059A000063B9BB2934226D8CB88063B9BB28342F0
:1059B00024D8022C15D00B89063B9BB293421AD8EF
:1059C0004B89063B9BB2834218D8042C09D18B89A2
:1059D000063B9BB293420ED8CB89063B9BB28342D7
:1059E0000CD8A200084807F072F9084A084B0020BA
:1059F00010601C6010BD6FF0010010BD6FF0020060
:105A000010BD4FF0FF3010BD44440020544400202E
:105A100058440020024A034B10701970704700BFB1
:105A20003C440020FB1B0020014B1870704700BF56
:105A3000F81B0020130200D4704710B584B000F0AA
:105A400017FF437ABDF804200233083063F30D02D8
:105A5000ADF804200390C15C8DF808105A1C9DF825
:105A6000091010F802C06CF305018DF80910825C72
:105A70009DF80510D20962F38611134A8DF80510BE
:105A800011789A1CB9B9825C9DF80910184462F328
:105A900087118DF80910D0F803100C4A019B126889
:105AA000C3F30E03CDE900130AB16846904700F036
:105AB000E5FE04B010BD9DF80930002464F387139F
:105AC0008DF809308158E8E77449002070490020BA
:105AD00010B50F4C237882B013B1002002B010BD76
